{
  "_format": "hh-sol-artifact-1",
  "contractName": "Election",
  "sourceName": "contracts/Election.sol",
  "abi": [
    {
      "inputs": [],
      "stateMutability": "nonpayable",
      "type": "constructor"
    },
    {
      "anonymous": false,
      "inputs": [
        {
          "indexed": false,
          "internalType": "uint256",
          "name": "id",
          "type": "uint256"
        },
        {
          "indexed": false,
          "internalType": "string",
          "name": "name",
          "type": "string"
        }
      ],
      "name": "CandidateAdded",
      "type": "event"
    },
    {
      "anonymous": false,
      "inputs": [
        {
          "indexed": false,
          "internalType": "string",
          "name": "electionId",
          "type": "string"
        },
        {
          "indexed": false,
          "internalType": "string",
          "name": "name",
          "type": "string"
        }
      ],
      "name": "ElectionCreated",
      "type": "event"
    },
    {
      "anonymous": false,
      "inputs": [
        {
          "indexed": false,
          "internalType": "bytes",
          "name": "epk",
          "type": "bytes"
        }
      ],
      "name": "EpkPublished",
      "type": "event"
    },
    {
      "anonymous": false,
      "inputs": [
        {
          "indexed": false,
          "internalType": "bytes32",
          "name": "root",
          "type": "bytes32"
        }
      ],
      "name": "MerkleRootUpdated",
      "type": "event"
    },
    {
      "inputs": [
        {
          "internalType": "string",
          "name": "_name",
          "type": "string"
        }
      ],
      "name": "addCandidate",
      "outputs": [],
      "stateMutability": "nonpayable",
      "type": "function"
    },
    {
      "inputs": [],
      "name": "admin",
      "outputs": [
        {
          "internalType": "address",
          "name": "",
          "type": "address"
        }
      ],
      "stateMutability": "view",
      "type": "function"
    },
    {
      "inputs": [
        {
          "internalType": "uint256",
          "name": "",
          "type": "uint256"
        }
      ],
      "name": "candidates",
      "outputs": [
        {
          "internalType": "uint256",
          "name": "id",
          "type": "uint256"
        },
        {
          "internalType": "string",
          "name": "name",
          "type": "string"
        },
        {
          "internalType": "uint256",
          "name": "voteCount",
          "type": "uint256"
        }
      ],
      "stateMutability": "view",
      "type": "function"
    },
    {
      "inputs": [],
      "name": "epk",
      "outputs": [
        {
          "internalType": "bytes",
          "name": "",
          "type": "bytes"
        }
      ],
      "stateMutability": "view",
      "type": "function"
    },
    {
      "inputs": [],
      "name": "getCandidateCount",
      "outputs": [
        {
          "internalType": "uint256",
          "name": "",
          "type": "uint256"
        }
      ],
      "stateMutability": "view",
      "type": "function"
    },
    {
      "inputs": [],
      "name": "info",
      "outputs": [
        {
          "internalType": "string",
          "name": "electionId",
          "type": "string"
        },
        {
          "internalType": "string",
          "name": "name",
          "type": "string"
        },
        {
          "internalType": "string",
          "name": "startDate",
          "type": "string"
        },
        {
          "internalType": "string",
          "name": "endDate",
          "type": "string"
        },
        {
          "internalType": "string",
          "name": "status",
          "type": "string"
        },
        {
          "internalType": "bytes32",
          "name": "merkleRoot",
          "type": "bytes32"
        }
      ],
      "stateMutability": "view",
      "type": "function"
    },
    {
      "inputs": [
        {
          "internalType": "bytes",
          "name": "_epk",
          "type": "bytes"
        }
      ],
      "name": "publishEpk",
      "outputs": [],
      "stateMutability": "nonpayable",
      "type": "function"
    },
    {
      "inputs": [
        {
          "internalType": "string",
          "name": "_id",
          "type": "string"
        },
        {
          "internalType": "string",
          "name": "_name",
          "type": "string"
        },
        {
          "internalType": "string",
          "name": "_start",
          "type": "string"
        },
        {
          "internalType": "string",
          "name": "_end",
          "type": "string"
        }
      ],
      "name": "setElectionInfo",
      "outputs": [],
      "stateMutability": "nonpayable",
      "type": "function"
    },
    {
      "inputs": [
        {
          "internalType": "bytes32",
          "name": "_root",
          "type": "bytes32"
        }
      ],
      "name": "setMerkleRoot",
      "outputs": [],
      "stateMutability": "nonpayable",
      "type": "function"
    }
  ],
  "bytecode": "0x608060405234801561001057600080fd5b50336000806101000a81548173ffffffffffffffffffffffffffffffffffffffff021916908373ffffffffffffffffffffffffffffffffffffffff1602179055506116e1806100606000396000f3fe608060405234801561001057600080fd5b50600436106100935760003560e01c80637c986e2b116100665780637c986e2b146101275780637cb6475914610143578063ab989f551461015f578063baacc5bd1461017d578063f851a4401461019957610093565b806330a56347146100985780633477ee2e146100b6578063370158ea146100e8578063462e91ec1461010b575b600080fd5b6100a06101b7565b6040516100ad9190610ad4565b60405180910390f35b6100d060048036038101906100cb9190610b2f565b6101c4565b6040516100df93929190610bec565b60405180910390f35b6100f0610286565b60405161010296959493929190610c43565b60405180910390f35b61012560048036038101906101209190610dfc565b610558565b005b610141600480360381019061013c9190610e45565b6106ab565b005b61015d60048036038101906101589190610f48565b61085a565b005b61016761092c565b6040516101749190610fca565b60405180910390f35b6101976004803603810190610192919061104c565b6109ba565b005b6101a1610a97565b6040516101ae91906110da565b60405180910390f35b6000600780549050905090565b600781815481106101d457600080fd5b90600052602060002090600302016000915090508060000154908060010180546101fd90611124565b80601f016020809104026020016040519081016040528092919081815260200182805461022990611124565b80156102765780601f1061024b57610100808354040283529160200191610276565b820191906000526020600020905b81548152906001019060200180831161025957829003601f168201915b5050505050908060020154905083565b600180600001805461029790611124565b80601f01602080910402602001604051908101604052809291908181526020018280546102c390611124565b80156103105780601f106102e557610100808354040283529160200191610310565b820191906000526020600020905b8154815290600101906020018083116102f357829003601f168201915b50505050509080600101805461032590611124565b80601f016020809104026020016040519081016040528092919081815260200182805461035190611124565b801561039e5780601f106103735761010080835404028352916020019161039e565b820191906000526020600020905b81548152906001019060200180831161038157829003601f168201915b5050505050908060020180546103b390611124565b80601f01602080910402602001604051908101604052809291908181526020018280546103df90611124565b801561042c5780601f106104015761010080835404028352916020019161042c565b820191906000526020600020905b81548152906001019060200180831161040f57829003601f168201915b50505050509080600301805461044190611124565b80601f016020809104026020016040519081016040528092919081815260200182805461046d90611124565b80156104ba5780601f1061048f576101008083540402835291602001916104ba565b820191906000526020600020905b81548152906001019060200180831161049d57829003601f168201915b5050505050908060040180546104cf90611124565b80601f01602080910402602001604051908101604052809291908181526020018280546104fb90611124565b80156105485780601f1061051d57610100808354040283529160200191610548565b820191906000526020600020905b81548152906001019060200180831161052b57829003601f168201915b5050505050908060050154905086565b60008054906101000a900473ffffffffffffffffffffffffffffffffffffffff1673ffffffffffffffffffffffffffffffffffffffff163373ffffffffffffffffffffffffffffffffffffffff16146105e6576040517f08c379a00000000000000000000000000000000000000000000000000000000081526004016105dd906111a1565b60405180910390fd5b60076040518060600160405280600160078054905061060591906111f0565b81526020018381526020016000815250908060018154018082558091505060019003906000526020600020906003020160009091909190915060008201518160000155602082015181600101908161065d91906113d0565b506040820151816002015550507fe83b2a43e7e82d975c8a0a6d2f045153c869e111136a34d1889ab7b598e396a3600780549050826040516106a09291906114a2565b60405180910390a150565b60008054906101000a900473ffffffffffffffffffffffffffffffffffffffff1673ffffffffffffffffffffffffffffffffffffffff163373ffffffffffffffffffffffffffffffffffffffff1614610739576040517f08c379a0000000000000000000000000000000000000000000000000000000008152600401610730906111a1565b60405180910390fd5b6040518060c001604052808581526020018481526020018381526020018281526020016040518060400160405280600681526020017f616374697665000000000000000000000000000000000000000000000000000081525081526020016000801b815250600160008201518160000190816107b591906113d0565b5060208201518160010190816107cb91906113d0565b5060408201518160020190816107e191906113d0565b5060608201518160030190816107f791906113d0565b50608082015181600401908161080d91906113d0565b5060a082015181600501559050507f1594903932ed8f9b9f2f2bbc15a18c132591e2c4d3730ba56705aa661662f49c848460405161084c9291906114d2565b60405180910390a150505050565b60008054906101000a900473ffffffffffffffffffffffffffffffffffffffff1673ffffffffffffffffffffffffffffffffffffffff163373ffffffffffffffffffffffffffffffffffffffff16146108e8576040517f08c379a00000000000000000000000000000000000000000000000000000000081526004016108df906111a1565b60405180910390fd5b806001600501819055507f90004c04698bc3322499a575ed3752dd4abf33e0a7294c06a787a0fe01bea941816040516109219190611509565b60405180910390a150565b6008805461093990611124565b80601f016020809104026020016040519081016040528092919081815260200182805461096590611124565b80156109b25780601f10610987576101008083540402835291602001916109b2565b820191906000526020600020905b81548152906001019060200180831161099557829003601f168201915b505050505081565b60008054906101000a900473ffffffffffffffffffffffffffffffffffffffff1673ffffffffffffffffffffffffffffffffffffffff163373ffffffffffffffffffffffffffffffffffffffff1614610a48576040517f08c379a0000000000000000000000000000000000000000000000000000000008152600401610a3f906111a1565b60405180910390fd5b818160089182610a5992919061158a565b507fcbe11c4a798e6399d2bdc5014d77dd62a510f9a2d3e8d17fa579793168e7b2198282604051610a8b929190611687565b60405180910390a15050565b60008054906101000a900473ffffffffffffffffffffffffffffffffffffffff1681565b6000819050919050565b610ace81610abb565b82525050565b6000602082019050610ae96000830184610ac5565b92915050565b6000604051905090565b600080fd5b600080fd5b610b0c81610abb565b8114610b1757600080fd5b50565b600081359050610b2981610b03565b92915050565b600060208284031215610b4557610b44610af9565b5b6000610b5384828501610b1a565b91505092915050565b600081519050919050565b600082825260208201905092915050565b60005b83811015610b96578082015181840152602081019050610b7b565b60008484015250505050565b6000601f19601f8301169050919050565b6000610bbe82610b5c565b610bc88185610b67565b9350610bd8818560208601610b78565b610be181610ba2565b840191505092915050565b6000606082019050610c016000830186610ac5565b8181036020830152610c138185610bb3565b9050610c226040830184610ac5565b949350505050565b6000819050919050565b610c3d81610c2a565b82525050565b600060c0820190508181036000830152610c5d8189610bb3565b90508181036020830152610c718188610bb3565b90508181036040830152610c858187610bb3565b90508181036060830152610c998186610bb3565b90508181036080830152610cad8185610bb3565b9050610cbc60a0830184610c34565b979650505050505050565b600080fd5b600080fd5b7f4e487b7100000000000000000000000000000000000000000000000000000000600052604160045260246000fd5b610d0982610ba2565b810181811067ffffffffffffffff82111715610d2857610d27610cd1565b5b80604052505050565b6000610d3b610aef565b9050610d478282610d00565b919050565b600067ffffffffffffffff821115610d6757610d66610cd1565b5b610d7082610ba2565b9050602081019050919050565b82818337600083830152505050565b6000610d9f610d9a84610d4c565b610d31565b905082815260208101848484011115610dbb57610dba610ccc565b5b610dc6848285610d7d565b509392505050565b600082601f830112610de357610de2610cc7565b5b8135610df3848260208601610d8c565b91505092915050565b600060208284031215610e1257610e11610af9565b5b600082013567ffffffffffffffff811115610e3057610e2f610afe565b5b610e3c84828501610dce565b91505092915050565b60008060008060808587031215610e5f57610e5e610af9565b5b600085013567ffffffffffffffff811115610e7d57610e7c610afe565b5b610e8987828801610dce565b945050602085013567ffffffffffffffff811115610eaa57610ea9610afe565b5b610eb687828801610dce565b935050604085013567ffffffffffffffff811115610ed757610ed6610afe565b5b610ee387828801610dce565b925050606085013567ffffffffffffffff811115610f0457610f03610afe565b5b610f1087828801610dce565b91505092959194509250565b610f2581610c2a565b8114610f3057600080fd5b50565b600081359050610f4281610f1c565b92915050565b600060208284031215610f5e57610f5d610af9565b5b6000610f6c84828501610f33565b91505092915050565b600081519050919050565b600082825260208201905092915050565b6000610f9c82610f75565b610fa68185610f80565b9350610fb6818560208601610b78565b610fbf81610ba2565b840191505092915050565b60006020820190508181036000830152610fe48184610f91565b905092915050565b600080fd5b600080fd5b60008083601f84011261100c5761100b610cc7565b5b8235905067ffffffffffffffff81111561102957611028610fec565b5b60208301915083600182028301111561104557611044610ff1565b5b9250929050565b6000806020838503121561106357611062610af9565b5b600083013567ffffffffffffffff81111561108157611080610afe565b5b61108d85828601610ff6565b92509250509250929050565b600073ffffffffffffffffffffffffffffffffffffffff82169050919050565b60006110c482611099565b9050919050565b6110d4816110b9565b82525050565b60006020820190506110ef60008301846110cb565b92915050565b7f4e487b7100000000000000000000000000000000000000000000000000000000600052602260045260246000fd5b6000600282049050600182168061113c57607f821691505b60208210810361114f5761114e6110f5565b5b50919050565b7f4e6f7420617574686f72697a6564000000000000000000000000000000000000600082015250565b600061118b600e83610b67565b915061119682611155565b602082019050919050565b600060208201905081810360008301526111ba8161117e565b9050919050565b7f4e487b7100000000000000000000000000000000000000000000000000000000600052601160045260246000fd5b60006111fb82610abb565b915061120683610abb565b925082820190508082111561121e5761121d6111c1565b5b92915050565b60008190508160005260206000209050919050565b60006020601f8301049050919050565b600082821b905092915050565b6000600883026112867fffffffffffffffffffffffffffffffffffffffffffffffffffffffffffffffff82611249565b6112908683611249565b95508019841693508086168417925050509392505050565b6000819050919050565b60006112cd6112c86112c384610abb565b6112a8565b610abb565b9050919050565b6000819050919050565b6112e7836112b2565b6112fb6112f3826112d4565b848454611256565b825550505050565b600090565b611310611303565b61131b8184846112de565b505050565b5b8181101561133f57611334600082611308565b600181019050611321565b5050565b601f8211156113845761135581611224565b61135e84611239565b8101602085101561136d578190505b61138161137985611239565b830182611320565b50505b505050565b600082821c905092915050565b60006113a760001984600802611389565b1980831691505092915050565b60006113c08383611396565b9150826002028217905092915050565b6113d982610b5c565b67ffffffffffffffff8111156113f2576113f1610cd1565b5b6113fc8254611124565b611407828285611343565b600060209050601f83116001811461143a5760008415611428578287015190505b61143285826113b4565b86555061149a565b601f19841661144886611224565b60005b828110156114705784890151825560018201915060208501945060208101905061144b565b8683101561148d5784890151611489601f891682611396565b8355505b6001600288020188555050505b505050505050565b60006040820190506114b76000830185610ac5565b81810360208301526114c98184610bb3565b90509392505050565b600060408201905081810360008301526114ec8185610bb3565b905081810360208301526115008184610bb3565b90509392505050565b600060208201905061151e6000830184610c34565b92915050565b600082905092915050565b60008190508160005260206000209050919050565b601f821115611585576115568161152f565b61155f84611239565b8101602085101561156e578190505b61158261157a85611239565b830182611320565b50505b505050565b6115948383611524565b67ffffffffffffffff8111156115ad576115ac610cd1565b5b6115b78254611124565b6115c2828285611544565b6000601f8311600181146115f157600084156115df578287013590505b6115e985826113b4565b865550611651565b601f1984166115ff8661152f565b60005b8281101561162757848901358255600182019150602085019450602081019050611602565b868310156116445784890135611640601f891682611396565b8355505b6001600288020188555050505b50505050505050565b60006116668385610f80565b9350611673838584610d7d565b61167c83610ba2565b840190509392505050565b600060208201905081810360008301526116a281848661165a565b9050939250505056fea2646970667358221220296554041091154b2e412ed34e1e38e12feb92bc9b7e3b587135d9b832246fb164736f6c63430008140033",
  "linkReferences": {},
  "deployedLinkReferences": {}
}