{
  "_format": "hh-sol-artifact-1",
  "contractName": "Election",
  "sourceName": "contracts/Election.sol",
  "abi": [
    {
      "inputs": [],
      "stateMutability": "nonpayable",
      "type": "constructor"
    },
    {
      "anonymous": false,
      "inputs": [
        {
          "indexed": false,
          "internalType": "uint256",
          "name": "id",
          "type": "uint256"
        },
        {
          "indexed": false,
          "internalType": "string",
          "name": "name",
          "type": "string"
        }
      ],
      "name": "CandidateAdded",
      "type": "event"
    },
    {
      "anonymous": false,
      "inputs": [
        {
          "indexed": false,
          "internalType": "string",
          "name": "electionId",
          "type": "string"
        },
        {
          "indexed": false,
          "internalType": "string",
          "name": "name",
          "type": "string"
        }
      ],
      "name": "ElectionCreated",
      "type": "event"
    },
    {
      "anonymous": false,
      "inputs": [
        {
          "indexed": false,
          "internalType": "bytes",
          "name": "epk",
          "type": "bytes"
        }
      ],
      "name": "EpkPublished",
      "type": "event"
    },
    {
      "anonymous": false,
      "inputs": [
        {
          "indexed": false,
          "internalType": "bytes32",
          "name": "root",
          "type": "bytes32"
        }
      ],
      "name": "MerkleRootUpdated",
      "type": "event"
    },
    {
      "anonymous": false,
      "inputs": [
        {
          "indexed": false,
          "internalType": "bytes",
          "name": "C_total",
          "type": "bytes"
        },
        {
          "indexed": false,
          "internalType": "bytes32",
          "name": "proofHash",
          "type": "bytes32"
        }
      ],
      "name": "TallySubmitted",
      "type": "event"
    },
    {
      "anonymous": false,
      "inputs": [
        {
          "indexed": true,
          "internalType": "bytes32",
          "name": "nullifier",
          "type": "bytes32"
        },
        {
          "indexed": false,
          "internalType": "bytes",
          "name": "ciphertext",
          "type": "bytes"
        },
        {
          "indexed": false,
          "internalType": "uint256",
          "name": "timestamp",
          "type": "uint256"
        }
      ],
      "name": "VoteSubmitted",
      "type": "event"
    },
    {
      "inputs": [
        {
          "internalType": "string",
          "name": "_name",
          "type": "string"
        }
      ],
      "name": "addCandidate",
      "outputs": [],
      "stateMutability": "nonpayable",
      "type": "function"
    },
    {
      "inputs": [],
      "name": "admin",
      "outputs": [
        {
          "internalType": "address",
          "name": "",
          "type": "address"
        }
      ],
      "stateMutability": "view",
      "type": "function"
    },
    {
      "inputs": [
        {
          "internalType": "uint256",
          "name": "",
          "type": "uint256"
        }
      ],
      "name": "candidates",
      "outputs": [
        {
          "internalType": "uint256",
          "name": "id",
          "type": "uint256"
        },
        {
          "internalType": "string",
          "name": "name",
          "type": "string"
        },
        {
          "internalType": "uint256",
          "name": "voteCount",
          "type": "uint256"
        }
      ],
      "stateMutability": "view",
      "type": "function"
    },
    {
      "inputs": [],
      "name": "epk",
      "outputs": [
        {
          "internalType": "bytes",
          "name": "",
          "type": "bytes"
        }
      ],
      "stateMutability": "view",
      "type": "function"
    },
    {
      "inputs": [],
      "name": "finalCipher",
      "outputs": [
        {
          "internalType": "bytes",
          "name": "",
          "type": "bytes"
        }
      ],
      "stateMutability": "view",
      "type": "function"
    },
    {
      "inputs": [],
      "name": "getCandidateCount",
      "outputs": [
        {
          "internalType": "uint256",
          "name": "",
          "type": "uint256"
        }
      ],
      "stateMutability": "view",
      "type": "function"
    },
    {
      "inputs": [],
      "name": "getNullifierCount",
      "outputs": [
        {
          "internalType": "uint256",
          "name": "",
          "type": "uint256"
        }
      ],
      "stateMutability": "view",
      "type": "function"
    },
    {
      "inputs": [],
      "name": "info",
      "outputs": [
        {
          "internalType": "string",
          "name": "electionId",
          "type": "string"
        },
        {
          "internalType": "string",
          "name": "name",
          "type": "string"
        },
        {
          "internalType": "string",
          "name": "startDate",
          "type": "string"
        },
        {
          "internalType": "string",
          "name": "endDate",
          "type": "string"
        },
        {
          "internalType": "string",
          "name": "status",
          "type": "string"
        },
        {
          "internalType": "bytes32",
          "name": "merkleRoot",
          "type": "bytes32"
        }
      ],
      "stateMutability": "view",
      "type": "function"
    },
    {
      "inputs": [
        {
          "internalType": "bytes32",
          "name": "",
          "type": "bytes32"
        }
      ],
      "name": "isNullifierUsed",
      "outputs": [
        {
          "internalType": "bool",
          "name": "",
          "type": "bool"
        }
      ],
      "stateMutability": "view",
      "type": "function"
    },
    {
      "inputs": [
        {
          "internalType": "uint256",
          "name": "",
          "type": "uint256"
        }
      ],
      "name": "nullifiers",
      "outputs": [
        {
          "internalType": "bytes32",
          "name": "",
          "type": "bytes32"
        }
      ],
      "stateMutability": "view",
      "type": "function"
    },
    {
      "inputs": [
        {
          "internalType": "bytes",
          "name": "_epk",
          "type": "bytes"
        }
      ],
      "name": "publishEpk",
      "outputs": [],
      "stateMutability": "nonpayable",
      "type": "function"
    },
    {
      "inputs": [
        {
          "internalType": "string",
          "name": "_id",
          "type": "string"
        },
        {
          "internalType": "string",
          "name": "_name",
          "type": "string"
        },
        {
          "internalType": "string",
          "name": "_start",
          "type": "string"
        },
        {
          "internalType": "string",
          "name": "_end",
          "type": "string"
        }
      ],
      "name": "setElectionInfo",
      "outputs": [],
      "stateMutability": "nonpayable",
      "type": "function"
    },
    {
      "inputs": [
        {
          "internalType": "bytes32",
          "name": "_root",
          "type": "bytes32"
        }
      ],
      "name": "setMerkleRoot",
      "outputs": [],
      "stateMutability": "nonpayable",
      "type": "function"
    },
    {
      "inputs": [
        {
          "internalType": "bytes",
          "name": "_C_total",
          "type": "bytes"
        },
        {
          "internalType": "bytes32",
          "name": "_proofHash",
          "type": "bytes32"
        }
      ],
      "name": "submitTally",
      "outputs": [],
      "stateMutability": "nonpayable",
      "type": "function"
    },
    {
      "inputs": [
        {
          "internalType": "bytes32",
          "name": "_nullifier",
          "type": "bytes32"
        },
        {
          "internalType": "bytes",
          "name": "_ciphertext",
          "type": "bytes"
        }
      ],
      "name": "submitVote",
      "outputs": [],
      "stateMutability": "nonpayable",
      "type": "function"
    },
    {
      "inputs": [],
      "name": "tallyProofHash",
      "outputs": [
        {
          "internalType": "bytes32",
          "name": "",
          "type": "bytes32"
        }
      ],
      "stateMutability": "view",
      "type": "function"
    },
    {
      "inputs": [
        {
          "internalType": "bytes32",
          "name": "",
          "type": "bytes32"
        }
      ],
      "name": "votes",
      "outputs": [
        {
          "internalType": "bytes32",
          "name": "nullifier",
          "type": "bytes32"
        },
        {
          "internalType": "bytes",
          "name": "ciphertext",
          "type": "bytes"
        },
        {
          "internalType": "uint256",
          "name": "timestamp",
          "type": "uint256"
        }
      ],
      "stateMutability": "view",
      "type": "function"
    }
  ],
  "bytecode": "0x608060405234801561001057600080fd5b50336000806101000a81548173ffffffffffffffffffffffffffffffffffffffff021916908373ffffffffffffffffffffffffffffffffffffffff16021790555061205d806100606000396000f3fe608060405234801561001057600080fd5b506004361061010b5760003560e01c80637c986e2b116100a2578063b40e987e11610071578063b40e987e146102ad578063b415616e146102cb578063baacc5bd146102e9578063d21e82ab14610305578063f851a440146103355761010b565b80637c986e2b1461023b5780637cb64759146102575780638f8c143214610273578063ab989f551461028f5761010b565b8063370158ea116100de578063370158ea146101c2578063462e91ec146101e557806365a1ccc0146102015780637a5537441461021d5761010b565b806322dc7b4c146101105780632b38cd961461014057806330a56347146101725780633477ee2e14610190575b600080fd5b61012a60048036038101906101259190611106565b610353565b604051610137919061114e565b60405180910390f35b61015a60048036038101906101559190611106565b610373565b60405161016993929190611221565b60405180910390f35b61017a610425565b604051610187919061125f565b60405180910390f35b6101aa60048036038101906101a591906112a6565b610432565b6040516101b993929190611328565b60405180910390f35b6101ca6104f4565b6040516101dc96959493929190611366565b60405180910390f35b6101ff60048036038101906101fa919061151f565b6107c6565b005b61021b600480360381019061021691906115c8565b610919565b005b610225610a00565b604051610232919061125f565b60405180910390f35b61025560048036038101906102509190611628565b610a0d565b005b610271600480360381019061026c9190611106565b610bbc565b005b61028d600480360381019061028891906116ff565b610c8e565b005b610297610e75565b6040516102a4919061175f565b60405180910390f35b6102b5610f03565b6040516102c2919061175f565b60405180910390f35b6102d3610f91565b6040516102e09190611781565b60405180910390f35b61030360048036038101906102fe919061179c565b610f97565b005b61031f600480360381019061031a91906112a6565b611074565b60405161032c9190611781565b60405180910390f35b61033d611098565b60405161034a919061182a565b60405180910390f35b600b6020528060005260406000206000915054906101000a900460ff1681565b600960205280600052604060002060009150905080600001549080600101805461039c90611874565b80601f01602080910402602001604051908101604052809291908181526020018280546103c890611874565b80156104155780601f106103ea57610100808354040283529160200191610415565b820191906000526020600020905b8154815290600101906020018083116103f857829003601f168201915b5050505050908060020154905083565b6000600780549050905090565b6007818154811061044257600080fd5b906000526020600020906003020160009150905080600001549080600101805461046b90611874565b80601f016020809104026020016040519081016040528092919081815260200182805461049790611874565b80156104e45780601f106104b9576101008083540402835291602001916104e4565b820191906000526020600020905b8154815290600101906020018083116104c757829003601f168201915b5050505050908060020154905083565b600180600001805461050590611874565b80601f016020809104026020016040519081016040528092919081815260200182805461053190611874565b801561057e5780601f106105535761010080835404028352916020019161057e565b820191906000526020600020905b81548152906001019060200180831161056157829003601f168201915b50505050509080600101805461059390611874565b80601f01602080910402602001604051908101604052809291908181526020018280546105bf90611874565b801561060c5780601f106105e15761010080835404028352916020019161060c565b820191906000526020600020905b8154815290600101906020018083116105ef57829003601f168201915b50505050509080600201805461062190611874565b80601f016020809104026020016040519081016040528092919081815260200182805461064d90611874565b801561069a5780601f1061066f5761010080835404028352916020019161069a565b820191906000526020600020905b81548152906001019060200180831161067d57829003601f168201915b5050505050908060030180546106af90611874565b80601f01602080910402602001604051908101604052809291908181526020018280546106db90611874565b80156107285780601f106106fd57610100808354040283529160200191610728565b820191906000526020600020905b81548152906001019060200180831161070b57829003601f168201915b50505050509080600401805461073d90611874565b80601f016020809104026020016040519081016040528092919081815260200182805461076990611874565b80156107b65780601f1061078b576101008083540402835291602001916107b6565b820191906000526020600020905b81548152906001019060200180831161079957829003601f168201915b5050505050908060050154905086565b60008054906101000a900473ffffffffffffffffffffffffffffffffffffffff1673ffffffffffffffffffffffffffffffffffffffff163373ffffffffffffffffffffffffffffffffffffffff1614610854576040517f08c379a000000000000000000000000000000000000000000000000000000000815260040161084b906118f1565b60405180910390fd5b6007604051806060016040528060016007805490506108739190611940565b8152602001838152602001600081525090806001815401808255809150506001900390600052602060002090600302016000909190919091506000820151816000015560208201518160010190816108cb9190611b20565b506040820151816002015550507fe83b2a43e7e82d975c8a0a6d2f045153c869e111136a34d1889ab7b598e396a36007805490508260405161090e929190611bf2565b60405180910390a150565b60008054906101000a900473ffffffffffffffffffffffffffffffffffffffff1673ffffffffffffffffffffffffffffffffffffffff163373ffffffffffffffffffffffffffffffffffffffff16146109a7576040517f08c379a000000000000000000000000000000000000000000000000000000000815260040161099e906118f1565b60405180910390fd5b8282600c91826109b8929190611c88565b5080600d819055507fad9eb62a1200464e429cddb0ed9be8ce6d18df06b2e3f358ba7cb06ad06a21428383836040516109f393929190611d85565b60405180910390a1505050565b6000600a80549050905090565b60008054906101000a900473ffffffffffffffffffffffffffffffffffffffff1673ffffffffffffffffffffffffffffffffffffffff163373ffffffffffffffffffffffffffffffffffffffff1614610a9b576040517f08c379a0000000000000000000000000000000000000000000000000000000008152600401610a92906118f1565b60405180910390fd5b6040518060c001604052808581526020018481526020018381526020018281526020016040518060400160405280600681526020017f616374697665000000000000000000000000000000000000000000000000000081525081526020016000801b81525060016000820151816000019081610b179190611b20565b506020820151816001019081610b2d9190611b20565b506040820151816002019081610b439190611b20565b506060820151816003019081610b599190611b20565b506080820151816004019081610b6f9190611b20565b5060a082015181600501559050507f1594903932ed8f9b9f2f2bbc15a18c132591e2c4d3730ba56705aa661662f49c8484604051610bae929190611db7565b60405180910390a150505050565b60008054906101000a900473ffffffffffffffffffffffffffffffffffffffff1673ffffffffffffffffffffffffffffffffffffffff163373ffffffffffffffffffffffffffffffffffffffff1614610c4a576040517f08c379a0000000000000000000000000000000000000000000000000000000008152600401610c41906118f1565b60405180910390fd5b806001600501819055507f90004c04698bc3322499a575ed3752dd4abf33e0a7294c06a787a0fe01bea94181604051610c839190611781565b60405180910390a150565b7f9651c33eb23976f7c15240e86443dc2ded40546fa9ba457a14abab4090e023b56001600401604051602001610cc49190611e7c565b6040516020818303038152906040528051906020012014610d1a576040517f08c379a0000000000000000000000000000000000000000000000000000000008152600401610d1190611edf565b60405180910390fd5b604051806060016040528084815260200183838080601f016020809104026020016040519081016040528093929190818152602001838380828437600081840152601f19601f8201169050808301925050505050505081526020014281525060096000858152602001908152602001600020600082015181600001556020820151816001019081610dab9190611eff565b5060408201518160020155905050600b600084815260200190815260200160002060009054906101000a900460ff16610e34576001600b600085815260200190815260200160002060006101000a81548160ff021916908315150217905550600a8390806001815401808255809150506001900390600052602060002001600090919091909150555b827f6dc08029c2ed8bf41bb25a8f356c54f0d2389448ec6b1aea3f09e7e014b222bc838342604051610e6893929190611fd1565b60405180910390a2505050565b60088054610e8290611874565b80601f0160208091040260200160405190810160405280929190818152602001828054610eae90611874565b8015610efb5780601f10610ed057610100808354040283529160200191610efb565b820191906000526020600020905b815481529060010190602001808311610ede57829003601f168201915b505050505081565b600c8054610f1090611874565b80601f0160208091040260200160405190810160405280929190818152602001828054610f3c90611874565b8015610f895780601f10610f5e57610100808354040283529160200191610f89565b820191906000526020600020905b815481529060010190602001808311610f6c57829003601f168201915b505050505081565b600d5481565b60008054906101000a900473ffffffffffffffffffffffffffffffffffffffff1673ffffffffffffffffffffffffffffffffffffffff163373ffffffffffffffffffffffffffffffffffffffff1614611025576040517f08c379a000000000000000000000000000000000000000000000000000000000815260040161101c906118f1565b60405180910390fd5b818160089182611036929190611c88565b507fcbe11c4a798e6399d2bdc5014d77dd62a510f9a2d3e8d17fa579793168e7b2198282604051611068929190612003565b60405180910390a15050565b600a818154811061108457600080fd5b906000526020600020016000915090505481565b60008054906101000a900473ffffffffffffffffffffffffffffffffffffffff1681565b6000604051905090565b600080fd5b600080fd5b6000819050919050565b6110e3816110d0565b81146110ee57600080fd5b50565b600081359050611100816110da565b92915050565b60006020828403121561111c5761111b6110c6565b5b600061112a848285016110f1565b91505092915050565b60008115159050919050565b61114881611133565b82525050565b6000602082019050611163600083018461113f565b92915050565b611172816110d0565b82525050565b600081519050919050565b600082825260208201905092915050565b60005b838110156111b2578082015181840152602081019050611197565b60008484015250505050565b6000601f19601f8301169050919050565b60006111da82611178565b6111e48185611183565b93506111f4818560208601611194565b6111fd816111be565b840191505092915050565b6000819050919050565b61121b81611208565b82525050565b60006060820190506112366000830186611169565b818103602083015261124881856111cf565b90506112576040830184611212565b949350505050565b60006020820190506112746000830184611212565b92915050565b61128381611208565b811461128e57600080fd5b50565b6000813590506112a08161127a565b92915050565b6000602082840312156112bc576112bb6110c6565b5b60006112ca84828501611291565b91505092915050565b600081519050919050565b600082825260208201905092915050565b60006112fa826112d3565b61130481856112de565b9350611314818560208601611194565b61131d816111be565b840191505092915050565b600060608201905061133d6000830186611212565b818103602083015261134f81856112ef565b905061135e6040830184611212565b949350505050565b600060c082019050818103600083015261138081896112ef565b9050818103602083015261139481886112ef565b905081810360408301526113a881876112ef565b905081810360608301526113bc81866112ef565b905081810360808301526113d081856112ef565b90506113df60a0830184611169565b979650505050505050565b600080fd5b600080fd5b7f4e487b7100000000000000000000000000000000000000000000000000000000600052604160045260246000fd5b61142c826111be565b810181811067ffffffffffffffff8211171561144b5761144a6113f4565b5b80604052505050565b600061145e6110bc565b905061146a8282611423565b919050565b600067ffffffffffffffff82111561148a576114896113f4565b5b611493826111be565b9050602081019050919050565b82818337600083830152505050565b60006114c26114bd8461146f565b611454565b9050828152602081018484840111156114de576114dd6113ef565b5b6114e98482856114a0565b509392505050565b600082601f830112611506576115056113ea565b5b81356115168482602086016114af565b91505092915050565b600060208284031215611535576115346110c6565b5b600082013567ffffffffffffffff811115611553576115526110cb565b5b61155f848285016114f1565b91505092915050565b600080fd5b600080fd5b60008083601f840112611588576115876113ea565b5b8235905067ffffffffffffffff8111156115a5576115a4611568565b5b6020830191508360018202830111156115c1576115c061156d565b5b9250929050565b6000806000604084860312156115e1576115e06110c6565b5b600084013567ffffffffffffffff8111156115ff576115fe6110cb565b5b61160b86828701611572565b9350935050602061161e868287016110f1565b9150509250925092565b60008060008060808587031215611642576116416110c6565b5b600085013567ffffffffffffffff8111156116605761165f6110cb565b5b61166c878288016114f1565b945050602085013567ffffffffffffffff81111561168d5761168c6110cb565b5b611699878288016114f1565b935050604085013567ffffffffffffffff8111156116ba576116b96110cb565b5b6116c6878288016114f1565b925050606085013567ffffffffffffffff8111156116e7576116e66110cb565b5b6116f3878288016114f1565b91505092959194509250565b600080600060408486031215611718576117176110c6565b5b6000611726868287016110f1565b935050602084013567ffffffffffffffff811115611747576117466110cb565b5b61175386828701611572565b92509250509250925092565b6000602082019050818103600083015261177981846111cf565b905092915050565b60006020820190506117966000830184611169565b92915050565b600080602083850312156117b3576117b26110c6565b5b600083013567ffffffffffffffff8111156117d1576117d06110cb565b5b6117dd85828601611572565b92509250509250929050565b600073ffffffffffffffffffffffffffffffffffffffff82169050919050565b6000611814826117e9565b9050919050565b61182481611809565b82525050565b600060208201905061183f600083018461181b565b92915050565b7f4e487b7100000000000000000000000000000000000000000000000000000000600052602260045260246000fd5b6000600282049050600182168061188c57607f821691505b60208210810361189f5761189e611845565b5b50919050565b7f4e6f7420617574686f72697a6564000000000000000000000000000000000000600082015250565b60006118db600e836112de565b91506118e6826118a5565b602082019050919050565b6000602082019050818103600083015261190a816118ce565b9050919050565b7f4e487b7100000000000000000000000000000000000000000000000000000000600052601160045260246000fd5b600061194b82611208565b915061195683611208565b925082820190508082111561196e5761196d611911565b5b92915050565b60008190508160005260206000209050919050565b60006020601f8301049050919050565b600082821b905092915050565b6000600883026119d67fffffffffffffffffffffffffffffffffffffffffffffffffffffffffffffffff82611999565b6119e08683611999565b95508019841693508086168417925050509392505050565b6000819050919050565b6000611a1d611a18611a1384611208565b6119f8565b611208565b9050919050565b6000819050919050565b611a3783611a02565b611a4b611a4382611a24565b8484546119a6565b825550505050565b600090565b611a60611a53565b611a6b818484611a2e565b505050565b5b81811015611a8f57611a84600082611a58565b600181019050611a71565b5050565b601f821115611ad457611aa581611974565b611aae84611989565b81016020851015611abd578190505b611ad1611ac985611989565b830182611a70565b50505b505050565b600082821c905092915050565b6000611af760001984600802611ad9565b1980831691505092915050565b6000611b108383611ae6565b9150826002028217905092915050565b611b29826112d3565b67ffffffffffffffff811115611b4257611b416113f4565b5b611b4c8254611874565b611b57828285611a93565b600060209050601f831160018114611b8a5760008415611b78578287015190505b611b828582611b04565b865550611bea565b601f198416611b9886611974565b60005b82811015611bc057848901518255600182019150602085019450602081019050611b9b565b86831015611bdd5784890151611bd9601f891682611ae6565b8355505b6001600288020188555050505b505050505050565b6000604082019050611c076000830185611212565b8181036020830152611c1981846112ef565b90509392505050565b600082905092915050565b60008190508160005260206000209050919050565b601f821115611c8357611c5481611c2d565b611c5d84611989565b81016020851015611c6c578190505b611c80611c7885611989565b830182611a70565b50505b505050565b611c928383611c22565b67ffffffffffffffff811115611cab57611caa6113f4565b5b611cb58254611874565b611cc0828285611c42565b6000601f831160018114611cef5760008415611cdd578287013590505b611ce78582611b04565b865550611d4f565b601f198416611cfd86611c2d565b60005b82811015611d2557848901358255600182019150602085019450602081019050611d00565b86831015611d425784890135611d3e601f891682611ae6565b8355505b6001600288020188555050505b50505050505050565b6000611d648385611183565b9350611d718385846114a0565b611d7a836111be565b840190509392505050565b60006040820190508181036000830152611da0818587611d58565b9050611daf6020830184611169565b949350505050565b60006040820190508181036000830152611dd181856112ef565b90508181036020830152611de581846112ef565b90509392505050565b600081905092915050565b60008154611e0681611874565b611e108186611dee565b94506001821660008114611e2b5760018114611e4057611e73565b60ff1983168652811515820286019350611e73565b611e4985611974565b60005b83811015611e6b57815481890152600182019150602081019050611e4c565b838801955050505b50505092915050565b6000611e888284611df9565b915081905092915050565b7f456c656374696f6e206e6f742061637469766500000000000000000000000000600082015250565b6000611ec96013836112de565b9150611ed482611e93565b602082019050919050565b60006020820190508181036000830152611ef881611ebc565b9050919050565b611f0882611178565b67ffffffffffffffff811115611f2157611f206113f4565b5b611f2b8254611874565b611f36828285611c42565b600060209050601f831160018114611f695760008415611f57578287015190505b611f618582611b04565b865550611fc9565b601f198416611f7786611c2d565b60005b82811015611f9f57848901518255600182019150602085019450602081019050611f7a565b86831015611fbc5784890151611fb8601f891682611ae6565b8355505b6001600288020188555050505b505050505050565b60006040820190508181036000830152611fec818587611d58565b9050611ffb6020830184611212565b949350505050565b6000602082019050818103600083015261201e818486611d58565b9050939250505056fea2646970667358221220babfe97141f705c217806c222c5ac66c9c1c5f5cb238e4edfa95d33b055aedad64736f6c63430008140033",
  "linkReferences": {},
  "deployedLinkReferences": {}
}